:10000000A1CBA282A77CA70BA7F4A9DEA7D810CE0C
:1000100003D78637B7FF239671815526579E72A660
:10002000848112264F6E84318CE48EFF206F1D6F09
:100030001F6F1CCCFF34A71EE71DE71F6F016F0366
:100040004AA78486F8A702E701E7036F02C602E722
:1000500084CEFFC0C610A7C15A26FBB7FFC91F9B9D
:10006000C604A71EE502270A6F1EE5022702335EBB
:10007000A75D6EA48E04016F83300126FABDA92806
:100080006F809F19A60243A702A1022606300163D2
:100090000120F19F749F279F233089FF389F211FE4
:1000A000148EA10DCE008FC61CBDA59ACE010CC624
:1000B0001EBDA59AAE14AF43AF488E015ECC394B3E
:1000C000A7805A26FBB702D9BDAD198E4558BC8012
:1000D000001027DF2D1CAF8EA146BDB99C8EA0E875
:1000E0009F7286559771200B120F6FBDAD331CAFF9
:1000F000BDA9287EAC737DFF232B013BBDA7D1BDDD
:10010000A7D1318C037EA02A0F717EC00012180A7D
:1001100000800B0058000110708400B44A0CA72620
:10012000020CA6B600007EAA1A7EA9B37EA0F67EB7
:10013000B44A804FC75259FF045E7EB27735AA6633
:10014000AB6714AB1AAA29434F4C4F52204241537C
:10015000494320312E320D284329203139383220AD
:1001600054414E4459004D4943524F534F46540D4C
:10017000008D03847F39BD016A0F700D6F27320D2A
:1001800079260303703934749E7AA68034029F7AEC
:100190000A792603BDA63535F60A94260EC60BD776
:1001A000949E88A6848B108A8FA7848E045E7EA777
:1001B000D334148DE48D1427FAC660E79F00883588
:1001C000947FFF02B6FF00434827793454CEFF00E6
:1001D0008E01524F4A3412A742694224436C608D0B
:1001E00059A761A884A484E661E7804D27EBE64225
:1001F000E762C6F8CB084424FBEB602748C11A220B
:1002000046CA408D29BA011A2602CA20E760BE01FB
:100210001B8D9BC6FF8D214C2606E6628D1AA161BF
:10022000351226078112260473011A4F35D4867FB2
:10023000A742A6C443844039E742A6C48A806D42DF
:100240002B028AC039C6338EA238C12125168EA250
:100250001AC130240F8DD7C12B230288404D26AC04
:10026000CB1020A8588DC727015CE685209E5E5FD5
:100270000A5B0815095D202030120D0D0C5C03038C
:100280004013BD01673404D66F5C35042B31267AE8
:100290003416D6785A270FD6795C26028D0A9E7AB4
:1002A000A7809F7A0C793596C601D77C8E01DA9F9C
:1002B0007ED679D77D3462BDA7E535627EA65034FF
:1002C000171A50F6FF225425FA8D305F8D2FC6087D
:1002D00034045F4459588D2535045A26F38D1C3556
:1002E00003810D27080C9CD69CD19B25060F9C8D65
:1002F000148D12F6FF225425FA3594C602F7FF201A
:100300008D009E958C9E977EA7D334169E8881087B
:10031000260B8C040027468660A7822027810D26A5
:100320000E9E888660A7801F10C51F26F6201581A7
:1003300020252A4D2B0C814025068160250484DF71
:100340008840A7809F888C05FF23128E0400EC88CC
:1003500020ED818C05E025F6C660BDA92D3596BD42
:10036000016434160F6E966F27094C27179E99DC8F
:100370009B2009D689C41F8E101086209F6AD76CD7
:10038000976D3596036E8E01004F5F20EFBDA92853
:10039000BD01820F878E02DDC601BDA1710D7026E1
:1003A0002B0D6F2623810C27E4810826075A27E0AE
:1003B000301F20348115260A5A27D58608BDA2820F
:1003C00020F681031A012705810D260D4F3401BD4A
:1003D000B9586F848E02DC3581812025BD817B2454
:1003E000B9C1FA24B5A7805CBDA28220ADBD016D64
:1003F000966F27214C260C96782605C62C7EAC4697
:100400004A27127EA616BD0170966F4C2607967875
:1004100027E94A27EE39270EBDA5A58D109DA527F2
:100420002ABDA5A220F5BD017386FF976FBD017699
:10043000966F0F6F4C261496788102260C967927BA
:1004400003BDA2A8C6FFBDA2AA0F7839BDA5789D9D
:10045000A52716BDB26DC641BDB26F26EE4FBDA633
:100460005C86FF976F4F7EB7644F9E8ABDA65F0F75
:10047000780C7CBDA7D89E199F7E86FF977DDC1BDC
:10048000937E270D108300FF2402D77DBDA7F420A3
:10049000E7007C0F7D7EA7E70F78814D27603262F1
:1004A000BDA5C5BDA6487D01E4271DB601E3271DF6
:1004B000BDAD1986FF976F0C78BDA6357EAC7CBDAF
:1004C0000185BDA42D7EAC73B601E227037EA6167E
:1004D000BDAD19BDA77C9E199F7EDC7E4CBDAC379F
:1004E000BDA70B2613967C270F2AED9F1B8D4C8EE4
:1004F000ABECBDB99C7EACE9BDAD197EA6199D9F44
:100500008D76BDA6489E8A9DA52706BDB26DBDB756
:100510003DB601E2810226B5FC01E5338BDF9D7D0E
:1005200001E426A9FC01E7308B9F7EBDA77CBDA717
:100530000B26C89F7E0D7C27C22AF37EA7E92705DC
:10054000BDB73D9F9D6E9F009DBD017F966F4C275F
:10055000507EADEBBDB3E48301FF10220EECC3056A
:10056000FFDD883996872603BDA1CB0F87975310EF
:1005700026111C97567EB69B8E01D16F808620A7D0
:10058000808C01DA26F99DA52717BDB156BDB6545A
:10059000CE01D1E7C0270A8CC608A680A7C05A267C
:1005A000F939BDB26D812326029D9FBDB141BDB316
:1005B000ED598900266956D76FBD016127062A5F6C
:1005C000C1FE2D5B398DB19DA527F97EB277BD01A6
:1005D00088966F34028DD7BDA3ED5F966F27050D0A
:1005E000792601533502976F1D7EB4F48DD78D584F
:1005F000BDA6D1262439BD015EBDB156BDB6A43419
:10060000048D9FBDB26D8DBD966F0F6F3504C149CE
:100610002712C14F2742C62A8CC6288CC6248CC6F6
:10062000267EAC464C2BEF262E8D1DB601E3B40181
:10063000E427E30C78BDA70126DF0D7C27DB2B1711
:10064000967D27F19779200A0D7826D08D3326C91B
:100650000F798E01DA9F7A394C26FC4C8EFFFF0D04
:100660007826B9CE01DADF7EA748AF498E01D2BD28
:10067000A5980F7C860F977DBDA7E5860297782009
:10068000CF8E01DA9F7E96684C260BBDA9289E88E6
:10069000C653E7819F888D69DA7C26348E01DACED5
:1006A00001D2C6086FE2A680109E68312126050F90
:1006B0006FBDA282A0C0AAE4A7E45A26E9A6E0275B
:1006C0000A6D5727068D0A260720BB86468D294FBF
:1006D000397D01E42609BDA77C8D308D0820FA8D77
:1006E000208D0220FA2606967C402B144A978132F0
:1006F000622012B604008840D6685C2603B7040066
:10070000398D798D06BDA7E9D681391A508DE49EC1
:100710007E4F8D4146813C26F98D2E977C8D2A9700
:100720007D9B7C9780967D978127108D1CA784A147
:100730008026119B8097800A8126F08D0C9080275F
:100740000586018C8602978139860897828D064638
:100750000A8226F9398D06D6835AD18F390F830D37
:100760008426108D0725FC8D0324FC390C83F6FFAD
:100770002056398DF724FC8DF325FC391A508D4A0B
:100780000F828DDF8D27220F8D1D250F0A82968205
:1007900081A026EE9784398D0E22E98D1025E90C73
:1007A000829682806020EB0F838DBC20040F838DA6
:1007B000C6D683D1902203D191390F82391F899DEA
:1007C0009FC1AA2724C188BDA5C9B6FF218A088D6B
:1007D0001F9E8A301F26FC391A508DEE9E928D483E
:1007E000301F26FA398DF18D0B1CAFB6FF2184F72F
:1007F000B7FF21391A50D67DD781967D27079E7E77
:10080000AB805A26FB9B7C97809E7E8D1B863C8D01
:1008100019967C8D15967D8D114D2708A6808D0A21
:100820000A8126F896808D0286553402C601968587
:10083000B7FF20108EA85CE5E4260DA6A0108CA8BA
:10084000802712B7FF2020F3A6A1108CA8802705CF
:10085000B7FF2020F397855824D435828292AABA14
:10086000CADAEAF2FAFAFAF2EADACABAAA927A6AC0
:1008700052423222120A0202020A12223242526A00
:100880008D3F3410BDB7383510C10822485A2B05AA
:1008900086103D2008E6842A03C470215F34048D4D
:1008A0006CA6842B014F840F9A86AAE08A80A784C5
:1008B000398D0E8D584FE6842AF20386D486E7845C
:1008C00039BDB26ABD019DBDB70BC13F22073404DB
:1008D000BDB738C11F227134045486203D8E0400F8
:1008E000308BE661543A350684015649C610544AA5
:1008F0002AFCD786398DCDC6FFA6842A0D9486277B
:1009000008E68454545454C4075CBDA5E87EB2671D
:10091000BD01A02713BDB70BC108221B5D27065AD6
:1009200086103DCA0FCA808CC6608E04009F88E77F
:10093000808C05FF23F9398DEF8EA1657EB99CBDB2
:10094000B26DBDB70B5D263C7EB44A8DF5D78C8D5C
:10095000EE86043DDD8DB6FF038A01B7FF030F0865
:100960008D408D128D1F86FE8D1D8D1986028D176F
:100970009E8D26F04F8C8608A7E2B6FF2384F7AA47
:10098000E0B7FF2339867EB7FF20968C4C26FD39D1
:100990001F899D9FC1AA27DCC088BDA5C95C8D02A7
:1009A00020D4CEFF018D00A6C484F75724028A0804
:1009B000A7C139B6FF032A0DB6FF02BE008D270579
:1009C000301FBF008D3BBDB70EC10310220A7B5DF7
:1009D00026028D0A8E015AD653E6857EB4F38D9495
:1009E0008E015EC603860AEDE38DB7CC4080A7E298
:1009F000CA02F7FF20C802B6FF002B03E0E48CEB2D
:100A0000E4A6E044810126E65454E11F27046AE489
:100A100026D9E782ECE15A2ACC39813A240A81208E
:100A200026020E9F803080D039BC7ABCEEBC930188
:100A300012BF1FBF78B750B681B4FDB716B6A0B6C7
:100A40008CA5CEA9C6B6ABB6C8B6CFA8F5A564B47A
:100A5000EE79B9C579B9BC7BBACC7BBB917F011D5E
:100A600050B2D546B2D4464FD247CF5245CDA74516
:100A70004C53C549C6444154C15052494ED44FCE3F
:100A8000494E5055D4454EC44E4558D44449CD5294
:100A90004541C45255CE524553544F52C552455408
:100AA0005552CE53544FD0504F4BC5434F4ED44C5C
:100AB0004953D4434C4541D24E45D7434C4F41C492
:100AC00043534156C54F5045CE434C4F53C54C4CF4
:100AD0004953D45345D452455345D4434CD34D4F39
:100AE000544FD2534F554EC441554449CF455845B4
:100AF000C3534B4950C6544142A854CF5355C254D6
:100B00004845CE4E4FD4535445D04F46C6ABADAA00
:100B1000AFDE414EC44FD2BEBDBC5347CE494ED4CA
:100B20004142D35553D2524EC45349CE504545CB82
:100B30004C45CE535452A45641CC4153C343485222
:100B4000A4454FC64A4F595354CB4C454654A45222
:100B500049474854A44D4944A4504F494ED4494EA6
:100B60004B4559A44D45CDAD47AE86AEE3AEE3AEA1
:100B7000E3AF14AEE0B8F7AF42AFF5AE02B0F8B3F2
:100B80004EB046AE75ADE4AEC0AE09B757AE30B7A5
:100B900064AE41AD17A498A44CA5F6A416B75EA800
:100BA00080A8B1A910A7BDA94BA990A53EA5EC4E60
:100BB00046534E52474F4446434F564F4D554C4275
:100BC0005344442F304944544D4F534C5353544392
:100BD0004E4644414F444E494F464D4E4F49454481
:100BE00053204552524F520020494E20000D4F4B8A
:100BF0000D000D425245414B003064C6129F0FA6B6
:100C00008480802615AE019F119E3B27099C1127E9
:100C1000099E0F3A20E59E119F3B9E0F4D398D177F
:100C2000DE4133419E433001A68236029C4726F8BE
:100C3000DF45394F58D31FC3003A250810DF17107E
:100C4000931725EEC60CBD018EBD0191BDA7E9BD70
:100C5000A974BDAD330F6FBDB95CBDB9AF8EABAF7D
:100C60003A8D3D8D3B8EABE0BDB99C96684C270319
:100C7000BDBDC5BDB95C8EABEDBDB99CBDA390CE6D
:100C8000FFFFDF6825F60D701026F8339FA69D9FA5
:100C900027EA2511C6300D6F26ACBDB8217EADC048
:100CA000A6807EB9B1BDAF679E2BBF02DABDB82169
:100CB000D7038D4D2512DC47A384D31BDD1BEE84A7
:100CC0003702A7809C1B26F8B602DC271CDC1BDD44
:100CD00043DB038900DD41BDAC1ECE02D83702A73D
:100CE000809C4526F89E419F1B8D368D02208D9E4F
:100CF00019EC8427213304A6C026FCEF84AE84209F
:100D0000F0DC2B9E19EE84270910A3022306AE8483
:100D100020F31A019F473926FB9E196F806F809F31
:100D20001B9E19BDAEBB9E279F23BDADE49E1B9F9E
:100D30001D9F1F8E01A99F0BAEE410DE216FE20FF5
:100D40002D0F2E0F086E8486809708BDAF89BDAB2E
:100D5000F9326226049E0F3285C609BDAC33BDAEA2
:100D6000E8DC683416C6A5BDB26FBDB143BDB14164
:100D7000D654CA7FD450D750108EAD7F7EB1EA8E44
:100D8000BAC5BDBC149DA581A926059D9FBDB141D5
:100D9000BDBC6DBDB1E6DC3B340686803402BD01CE
:100DA0009A1CAF8D469EA69F2FA6802707813A27C3
:100DB0000F7EB277A6819700275BEC80DD689FA647
:100DC0009D9F8D0220D827784D102A01BC81A32237
:100DD0000BBE0123481F893A9D9F6E9481B423D195
:100DE0006E9F012D9E19301F9F3339BDA1C1270A67
:100DF0008103271581132703978739BDA1CB27FBD3
:100E000020EEBDA4269DA520021A0126339EA69F92
:100E10002F060032629E688CFFFF27069F299E2FB7
:100E20009F2D0F6F8EABF10D00102AFE467EAC6831
:100E3000260EC6209E2D1027FE0C9FA69E299F6879
:100E400039272CBDB3E634069E279DA5270CBDB2DD
:100E50006DBDB73D301F9C7422181F10A3E12512F1
:100E60001F0383003A250B931B2507DF219F277E55
:100E7000AD267EAC44BD0194BDA4269DA51027FEE1
:100E8000A0BDAD2620191F899D9FC1A52716C1A60B
:100E90002645C603BDAC33DEA69E6886A634528DB9
:100EA000037EAD9E9DA5BDAF678D403001DC2B104C
:100EB000936822029E19BDAD052517301F9FA639E4
:100EC00026FD86FF973BBDABF91F148126270BC675
:100ED000048CC60E7EAC467EB27735529F68DFA684
:100EE0008D068C8D069FA639C63A865FD7015F9E18
:100EF000A61F98D6019701A68427EC3404A1E02709
:100F0000E63001812227EA4C26023001818626E75D
:100F10000C0420E3BDB1419DA581812705C6A7BD75
:100F2000B26F964F26130F048DB64D27BA9D9F8141
:100F30008426F50A042AF19D9F9DA51025FF657E54
:100F4000ADC6BDB70BC681BDB26F340281A6270402
:100F500081A526830A53260535047EAE889D9F8D84
:100F600006812C27EF35849E8A9F2B246180309741
:100F700001DC2B811822DB58495849D32B5849DB17
:100F8000018900DD2B9D9F20E2BDB3579F3BC6B377
:100F9000BDB26F96063402BDB156350246BDB148AA
:100FA00010270C8F9E52DC2110A30224119C1B25BC
:100FB0000DE684BDB50D9E4DBDB6438E00569F4DCA
:100FC000BDB675DE4D9E3B3726A78410AF02393F74
:100FD0005245444F0D00C6220D6F27037EAC469646
:100FE0000927079E319F687EB2778EAFCEBDB99C30
:100FF0009E2F9FA639C6169E68300127DF8D030FEE
:101000006F3981232609BDA5A5BDA3EDBDB26D81B4
:1010100022260BBDB244C63BBDB26FBDB99F8E0246
:10102000DC6F840D6F26228D06C62CE784201ABD46
:10103000B9AFBDB9ACBDA390240532647EAE11C674
:101040002E0D702697399E33864F97099F35BDB375
:10105000579F3B9EA69F2B9E35A684260C9609265D
:1010600058BD017CBDB9AF8DC69FA69D9FD60627F2
:10107000279EA6970181222712301F4F9701BDA3FB
:101080005F0D6E2606863A9701862C9702BDB51E27
:10109000BDB249BDAFA42006BDBD12BDBC339DA5E8
:1010A0002706812C1026FF2E9EA69F359E2B9FA6DD
:1010B0009DA52721BDB26D20959FA6BDAEE830014C
:1010C0004D260AC606EE812741EC81DD31A68481DA
:1010D0008626E620949E35D6091026FD0BA6842789
:1010E000068EB0E77EB99C393F455854524120499D
:1010F000474E4F5245440D0026049E8A2003BDB33F
:10110000579F3BBDABF92704C60020471F1430038F
:10111000BDBC14A66897549E3BBDB9C2BDBC33305C
:1011200069BDBC96E068270CAE6E9F68AEE8109F64
:10113000A67EAD9E32E8129DA5812C26F49D9F8D42
:10114000BD8D131CFE7D1A010D0625032A998C2BDB
:1011500096C6187EAC468D6E4F8C34043402C601A0
:10116000BDAC33BDB2230F3F9DA580B225138103D3
:10117000240F810149983F913F2564973F9D9F200F
:10118000E9D63F26331024006B8B0724679906109D
:1011900027047C89FF340248ABE08EAA51308635A3
:1011A00002A18424558D9C34028D299E3D35022652
:1011B0001D4D1027006A204B0806598D098EB1CBB2
:1011C000D73F0F0620D99EA67EAEBB64B2F4A184A1
:1011D000243120D3EC0134068D08D63F16FF7B7EE8
:1011E000B277D654A68435203404D64F9E50DE52B2
:1011F00034546EA49E8AA6E0272681642703BDB1DD
:10120000439F3D3504815A2719817D271554D70AFC
:101210003552975C9F5DDF5F3504D761D854D76244
:10122000D64F39BD018B0F069D9F24037EBD12BD95
:10123000B3A22450812E27F481AC274081AB27E351
:101240008122260A9EA6BDB5189E649FA63981A854
:10125000260D865ABDB15ABDB3ED43537EB4F44C4E
:10126000272E8D06BDB156C6298CC6288CC62CE10A
:101270009F00A626020E9FC6027EAC46867DBDB1AB
:101280005A7EBEE9BDB3579F52960626957EBC1482
:101290009D9F1F89589D9FC12623046E9F01323454
:1012A00004C11C2522C12424208DBFA6E481222450
:1012B00018BDB1568DB7BDB1463502DE523442BDC0
:1012C000B70B350234068E8D993504BE01283AAD30
:1012D000947EB143864F9703BDB3EDDD01BDBC4A9B
:1012E000BDB3ED0D0326069401D40220049A01DA61
:1012F000027EB4F4BDB148261096618A7F945D9752
:101300005D8E005CBDBC9620360F060A3FBDB65709
:10131000D7569F589E5FBDB65996563404A0E02715
:101320000786012403D656409754DE585C5A26049B
:10133000D654200BA680A1C027F3C6FF240150CBB2
:101340000159D40A2702C6FF7EBC7CBDB26DC6011E
:101350008D089DA526F5395F9DA5D70597379DA5D5
:101360008D401025FF115FD7069D9F25048D3325E5
:101370000A1F899D9F25FC8D2924F88124260603B8
:1013800006CB809D9FD7389A088028102700750FBC
:10139000089E1BDC379C1D271210A381273E3005B9
:1013A00020F381412504805B80A5398E008AEEE41C
:1013B0001183B2872728DC1FDD43C30007DD419E70
:1013C0001D9F47BDAC1E9E419F1F9E459F1D9E4772
:1013D000DC37ED814F5FED84ED02A7049F39399032
:1013E000800000009D9FBDB14196542B5DBDB1436F
:1013F000964F819025088EB3DFBDBC96264CBDBCB0
:10140000C8DC5239DC053406125F9E3734148DD4A3
:1014100035349F37DE5234605C9DA5812C27EBD795
:1014200003BDB2673506DD059E1D9C1F2721DC37F5
:1014300010A3842706EC02308B20EFC612960526F7
:101440000BD603E1042759C6108CC6087EAC46CCE7
:101450000005DD64DC37ED84D603E704BDAC339FC3
:1014600041C60B4F0D0527053506C30001ED058D5F
:101470005DDD6430020A0326E89F0FD30F1025F7C5
:10148000C31F01BDAC37830035DD1F4F301FA705DB
:101490009C0F26F89E41961F9341ED029605262D3E
:1014A000E604D7034F5FDD643506DD5210A3052443
:1014B0003ADE6427048D17D35230020A0326E7ED83
:1014C000E358495849E3E1308B30059F393986109C
:1014D0009745EC05DD174F5F5849250F08650964EE
:1014E0002404D31725050A4526EE397EB4471F404C
:1014F000931F214F0F06DD50C6907EBC82BDB143C5
:10150000CE03D9BDBDDC32628E03D8200B9F4D8D3A
:101510005C9F58D75639301F8622970197023001B9
:101520009F629F58C6FF5CA680270C9101270491FB
:101530000226F381222702301F9F64D756DE6211F4
:101540008303D922078DC69E62BDB6459E0B8C01D2
:10155000D12605C61E7EAC469656A700DC58ED0285
:1015600086FF97069F0D9F5230059F0B390F074F3F
:101570003406DC23A3E0109321250ADD239E2330CB
:10158000019F253584C61A030727CA8D0435042018
:10159000DE9E279F234F5FDD4B9E219F478E01A933
:1015A0009C0B27048D3220F89E1B9C1D27048D2246
:1015B00020F89F419E419C1F2735EC02D341DD411D
:1015C000A6012AF0E60458CB053A9C4127E88D088D
:1015D00020F8A60130022A14E6842710EC021093AA
:1015E00023220910934723049F4BDD473005399E82
:1015F0004B27FB4FE6845AD347DD439E239F41BDD3
:10160000AC209E4BDC45ED029E45301F7EB593DC41
:10161000523406BDB223BDB14635109F62E6849EAA
:1016200052EB842405C61C7EAC46BDB50D9E62E619
:10163000848D109E4D8D228D0C9E628D1CBDB54CEF
:101640007EB168AE02DE255C2004A680A7C05A26C3
:10165000F9DF2539BDB1469E52E6848D182613AEBA
:1016600007301F9C2326083404D323DD23350430A0
:101670000139AE02399C0D26079F0B301B9F0D4F81
:10168000398D037EB4F38DCC0F065D39BDB70EC620
:1016900001BDB56D9653BDB511A78432627EB54CC0
:1016A0008D0220DF8DE0275EE684398D484FE1848E
:1016B0002303E6844F3406BDB50F9E4D8D9B350444
:1016C0003A3504BDB64520D58D2BA0844020DFC619
:1016D000FFD7539DA581292705BDB26D8D2D8D1591
:1016E00027245F4AA18424CD1F89E08450D153234D
:1016F000C4D65320C0BDB267EEE4AE659F4DA6646C
:10170000E66432671F357EB44A9D9FBDB141BDB3CB
:10171000E94D26F20EA5BDB6861027031CDEA69F56
:10172000A63AA68434526F849DA5BDBD123552A73A
:1017300084DFA6398D079F2BBDB26D20CEBDB14190
:1017400096542BC2964F819022BCBDBCC89E523984
:101750008DEEE6847EB4F38DDB9E2BE78439C6FEE6
:10176000D76F9DA53401BDAF67BDAD019F66350143
:1017700027129DA5271381AC26099D9F2706BDAF83
:1017800067270639CEFFFFDF2B32629E66BDB95C4C
:10179000BDA549EC842608BDA42D0F6F7EAC739FB8
:1017A00066EC0210932B22EFBDBDCCBDB9AC9E669A
:1017B0008D10AE9F0066CE02DDA6C027D0BDB9B1A8
:1017C00020F7BD01A63004108E02DDA68027512B24
:1017D00015813A260DE684C18427F0C18327EC8C5D
:1017E00086218D3020E5CE011681FF2604A68033A8
:1017F00045847F334A6DC427E7A0C42AF6ABC4EE04
:10180000414A2B066DC02AFC20F7A6C48D066DC088
:101810002AF820B7108C03D62406847FA7A06FA4D3
:1018200039BD01A39EA6CE02DC0F430F44A680273C
:10183000210D43270FBDB3A224188130250481391F
:1018400023100F438120270A9742812227380D4415
:101850002719A7C02706813A27CF20D16FC06FC0B4
:101860001F308302DA8E02DB9FA639813F26048671
:101870008720DF81272613CC3A83EDC10F42A68053
:1018800027D0914227CCA7C020F481302504813C89
:1018900025C0301F34500F41CE01160F42334AA6E7
:1018A000C4273110AE41AEE4E6A0E08027FAC18043
:1018B000263832623540DA4296412606C184260631
:1018C000863AEDC12094E7C0C18626020C44C1824D
:1018D00027AA2086CE011B034126C03550A680A72B
:1018E000C0BDB3A225EC034320E80C424A27AE3129
:1018F0003FE6A02AFC20AF275F8D030F6F398140A0
:101900002605BDA554200A8123260DBDA5A5BDA48D
:10191000069DA52743BDB26DBD0179274881A42747
:101920005D812C2741813B276EBDB156960634025E
:101930002606BDBDD9BDB5168D653504BDA35F0DA9
:101940006E27068D139DA520D25D26089DA5812CAE
:1019500027148D589DA526C5860D2055BDA35F274C
:10196000F7966C26F339BDA35F270AD66CD16B2599
:10197000068DE52022D66CD06A24FC502010BDB71D
:101980000981291026F8F0BDA35FD06C23090D6EE4
:1019900026058D185A26FB9D9F7EB91BBDB518BD27
:1019A000B6575C5A27BFA6808D0720F786208C8605
:1019B0003F7EA2828EBEC02009BDBB2F03540362AE
:1019C0002003BDBB2F5D102702808E005C1F895D48
:1019D000276CD04F2769250A974F966197548E0040
:1019E0004F50C1F82F594F6401BDBABAD6622A0BC5
:1019F0006301630263036304438900976396539909
:101A00006097539652995F97529651995E97519667
:101A100050995D97505D2A4425028D5D5F96502652
:101A20002E96519750965297519653975296639788
:101A3000530F63CB08C1282DE44F974F9754398D2E
:101A40006D5F20A85C086309530952095109502AA7
:101A5000F3964F3404A0E0974F23DE8C25080863EB
:101A600086009763200C0C4F27280650065106521B
:101A7000065324048D0D27EE3903540350035103FC
:101A80005203539E5230019F5226069E5030019FB2
:101A90005039C60A7EAC468E0012A6049763A60390
:101AA000A704A602A703A601A702965BA701CB087D
:101AB0002FE89663C008270C670166026603660478
:101AC000465C26F43981000000008D6327608D7824
:101AD00086009713971497159716D6538D22D663C1
:101AE000D7AED6528D1AD663D7ADD6518D12D663E6
:101AF000D7ACD6508D0CD663D7ABBDBC0B7EBA1C11
:101B00002795439613562726241696169B609716FC
:101B10009615995F97159614995E97149613995D8B
:101B200046971306140615061606634F20D539ECA2
:101B30000197618A80DD5DD661D854D762EC03DD00
:101B40005FA684975CD64F394D27169B4F46492890
:101B5000108B80974F270C966297543996544320E8
:101B6000023262102AFED27EBA92BDBC5F270D8B74
:101B70000225F40F62BDB9CD0C4F27EB398420004C
:101B80000000BDBC5F8EBB7D5FD762BDBC148C8D79
:101B90009E2773004F8DB10C4F27CC8E0013C604C7
:101BA000D703C6019650915D26139651915E260D7E
:101BB0009652915F2607965391602601431FA859BC
:101BC000240AE7800A032B34272EC6011F8A250E1C
:101BD0000860095F095E095D25E32BC820DF966078
:101BE00090539760965F9252975F965E9251975E80
:101BF000965D9250975D20D8C64020D0565656D755
:101C0000638D087EBA1CC6147EAC469E139F509E00
:101C1000159F52393402EC0197548A80DD500F63CE
:101C2000E684AE039F52D74F35828E004520068E44
:101C300000408C9E3B964FA78496548A7F9450A771
:101C4000019651A702DE52EF0339966197549E5CCC
:101C50009F4F0F63965E975196549E5F9F5239DC5B
:101C60004FDD5C9E519F5E9E539F604D39D64F273E
:101C700008D65459C6FF250150398DF1D7500F5160
:101C8000C68896508080D74FDC8ADD529763975480
:101C90007EBA180F5439E68427D3E601D8542BD1E5
:101CA000D64FE184261DE601CA7FD450E1012613F8
:101CB000D651E102260DD652E1032607D653E004A1
:101CC00026013956D85420ABD64F273DC0A0965494
:101CD0002A05035BBDBA7B8E004FC1F82E06BDBA44
:101CE000AE0F5B390F5B96544906507EBABAD64F99
:101CF000C1A0241D8DD2D7639654D754808086A06E
:101D0000974F965397017EBA18D750D751D752D7CD
:101D100053399E8A9F549F4F9F519F529F479F4583
:101D20002564BD0197812D260403552004812B26AF
:101D3000049D9F2551812E2728814526289D9F257A
:101D40006481AC270E812D270A81AB2708812B27C0
:101D500004200603489D9F254C0D48270800472076
:101D600004034626CC96479045974727122A09BD7B
:101D7000BB820C4726F92007BDBB6A0A4726F996A5
:101D8000552A8E7EBEE9D645D046D7453402BDBB26
:101D90006A3504C0308D022098BDBC2FBDBC7C8E3E
:101DA00000407EB9C2D6475858DB475880303404CB
:101DB000ABE09747209F9B3EBC1FFD9E6E6B27FDAF
:101DC0009E6E6B28008EABE78D0CDC68DD50C690F4
:101DD00043BDBC868D037EB99CCE03DA8620D654E3
:101DE0002A02862DA7C0DF6497548630D64F10276D
:101DF00000C64FC18022088EBDC0BDBACA86F79703
:101E0000458EBDBBBDBCA02E0F8EBDB6BDBCA02EE9
:101E10000EBDBB6A0A4520F1BDBB820C4520E2BD68
:101E2000B9B4BDBCC8C60196458B0A2B09810B24E9
:101E3000054A1F8986024A4A9747D7452E0DDE6418
:101E4000862EA7C05D27048630A7C08EBEC5C6807B
:101E50009653AB0397539652A90297529651A901F4
:101E600097519650A98497505C565928E32403C093
:101E70000B50CB2F30041F98847FA7C00A4526043F
:101E8000862EA7C053C4808CBEE926C4A6C281306A
:101E900027FA812E2602335F862BD647271C2A037A
:101EA000862D50A7428645A741862F4CC00A24FBA9
:101EB000CB3AED436F452004A7C46F418E03DA3956
:101EC0008000000000FA0A1F0000989680FFF0BD15
:101ED000C0000186A0FFFFD8F0000003E8FFFFFF6D
:101EE0009C0000000AFFFFFFFF964F2702035439B2
:101EF0009F64BDBC2F8D058D088E00407EBACA9FA1
:101F000064BDBC2A9E64E680D7559F648DEE9E64B6
:101F100030059F64BDB9C28E00450A5526EE39BD15
:101F2000BC6D2B2127158D10BDBC2F8D0E8E004052
:101F30008DCA8EBAC5BDB9C27EBCEEBE01169F5019
:101F4000BE01189F52BEBF749F5DBEBF769F5FBD2E
:101F5000BAD0DCADC3658BFD0118DD52DCABC9B076
:101F60008905FD0116DD500F548680974F96159711
:101F7000637EBA1C40E64DABBDBC5F8EBFBDD66173
:101F8000BDBB89BDBC5F8DB00F62965CD64FBDB93D
:101F9000BC8EBFC2BDB9B9965434022A09BDB9B4CA
:101FA00096542B05030ABDBEE98EBFC2BDB9C2352A
:101FB000024D2A03BDBEE98EBFC77EBEF083490F26
:101FC000DAA27F000000000584E61A2D1B86280790
:101FD000FBF88799688901872335DFE186A55DE7EE
:101FE0002883490FDAA2A154468F138F524389CD1B
:101FF000A68101000103010F010C01060109A027C0
:00000001FF
