:10000000444B2008D75F00EAD909D8D08E06006F8C
:10001000808C098926F98EC109CE0134C60ABDA596
:100020009ACCB277ED43ED486FC46F45CCCF0AFD53
:10003000012DCCCF32FD0132CE015E867EB701A00C
:10004000A7C0EC81EDC18CC13926F08EC2B2BF01D0
:10005000A18EC8B0BF019B8E095F9FB0CEB44AC6C7
:100060000AEF815A26FB8ED8A1BF010A867EB7010E
:10007000098ED8AFBF010D8613B7097A7F08007FBC
:10008000084A7F08947F08DE8E0989BF09483089B5
:100090000100BF094A3001BF09286F0030890119EA
:1000A000BF092A6F0030890119BF092C6F00860231
:1000B000B7095B308901191F105D27014C850127A5
:1000C000014C1F89CB18D719BD96EC96BA8B0697B1
:1000D000B7AD9FC0088D191CAF8EC138BDB99C8EBD
:1000E000C0E79F727ED93F128D06BDD2D27E80C0FE
:1000F0007F09827F09857F09867FFF4086D0B7FF11
:100100004812170BFCB6FF483914C192C23806C218
:1001100019C24EC44BC888C893CC1CDEBFC848C89F
:100120004BCAE9CAF98E90CD35C8A9C6E4CAE4C95C
:100130000CCED2C6E4C265DD8A4449534B204558F3
:1001400054454E44454420434F4C4F522042415366
:10015000494320312E310D434F505952494748549D
:100160002028432920313938322042592054414E29
:1001700044590D554E444552204C4943454E534534
:100180002046524F4D204D4943524F534F46540D38
:100190000D004449D244524956C54649454CC446CF
:1001A000494C45D34B494CCC4C4F41C44C5345D49E
:1001B0004D455247C552454E414DC5525345D45306
:1001C0004156C557524954C55645524946D9554ED0
:1001D0004C4F41C444534B494EC94241434B55D007
:1001E000434F50D944534B49A444534B4FA4444F1D
:1001F000D3CCA9CEC5D0BCD15CC6EFCA48D102CA07
:1002000039D01BD101C9E0D066D74ED233D599D2AF
:1002100062D3B9D4EDD562D6EC4356CE465245C52D
:100220004C4FC34C4FC64D4B4EA441D3CDF4CE9C46
:10023000CE10CE37CE02B27781E122088EC1F18096
:10024000CE7EADD481E11023F02D6E9F0141C14ED1
:1002500023046E9F0146C0443404BDB26235048E4F
:10026000C22C7EB2CE3520BDAD33BDD2D23424BD3A
:10027000CAE93504C1361025C6763262BDA7E9BD8C
:10028000A9740F6FBDB95CBDB9AF8EC25A7EAC60A8
:10029000425244464F425750464E46534145464FC0
:1002A0005345564645524241532020204441544232
:1002B000494E3411AE638C975F26048123270235A3
:1002C000913265BDC82E9FF16F88156F88166F88B3
:1002D000176F88186F06A60197EB9DA5270CBDB276
:1002E0006DBDB73D1F109EF1ED07EC07271DBDC684
:1002F00085EC09AE0B3416305EBD9FB53460A6E0C8
:100300002609351035048C02642505C6367EAC46B8
:10031000DEF1AC4D102700B73414A64F27066F4FFF
:10032000C6038D33EC61BDC7843404BDC77950EB7F
:10033000635CE744E642BDC7553306A6E44C30C4CF
:100340003A4A2737E7E4E684C1C025F2E6E40DD84F
:100350002614C62E7EAC4630C819D7EA9FEE30C4AC
:10036000BDC7637ED6F23412BDC7BF1F893542E7D1
:10037000C44A26F23414BDC71E35143261DEF1E7DB
:100380004386FFA74DA68481C02527843FA144242E
:100390002196D827BDA6448AC0A784BDC5A9AE4969
:1003A0008C01002608ACC81327088681214F5FED19
:1003B000C813C602AE498C0100260D3267AE4B96BB
:1003C000D82702C6037EC35ABDC3573514AF4D3478
:1003D00004BDC7553006E6433AA68481C0252B8468
:1003E0003FA1442625ECC813847F34064FE662E320
:1003F0006310A3E123140DD81027FF5610830100CA
:100400002303CC01008A80EDC813350430C8193AA3
:10041000EE62340486FFE3612407ED613504502069
:1004200008E6626F616F62326196D827021E13BDC3
:10043000A59AEF62DEF196D82704A74FAF62AE4DC2
:1004400030015FEEE41026FEBD35963262BDB15636
:10045000BDB6A43404BDA5A25D102FE1A6350234BB
:10046000060F6FBDB26D8EC2ACBDC938CC01FFFDA9
:1004700009578E01009DA52708BDB26DBDB3E69E4C
:1004800052BF097C1027EFC2BDA5C735063402BD97
:10049000C7491026E1869FF1BDC79DBDC68C3504B6
:1004A00086103402C149261FBDC6E5BDC807BE0976
:1004B00074EC0BFD09578D75BDC627BDC7556C0083
:1004C0009EF13502A7003968E4C14F261B7D0973F0
:1004D000270FBDC6FCB60973B70977BE0974BF09FB
:1004E00078BDC5678D5220D3C1522706C14410265E
:1004F000E12468E4FC09483406F3097C250610B3BE
:10050000094A2305C63A7EAC4634067D09732604A3
:100510008D55200586FFBDC8078D12630D6C08350B
:1005200046FD0948EF0BFE097CEF09208E8D09FE80
:100530000974EE4EEF8813399EF1C6196F805A2662
:10054000FB9EF196EBA701B60976A702A703F60971
:1005500073C0035858583404FC0974830600860895
:100560003DABE0A7881239C638B609771027E6D622
:10057000B7097397EDC602D7EABDD6F2BE0978BFB8
:1005800009743384C6206F805A26FB8E094CC60B33
:10059000BDA59AFC0957ED40C621BDC7BFB7097676
:1005A000A742C603D7EABDD6F23456BDC7556C0183
:1005B000A601B1097A2503BDC71E35D6966F102F47
:1005C000C72F326234140F708E0926D66F58AE854D
:1005D000E684C1402616EC881510A3092420C30028
:1005E00001ED8815AE0B308BA61F3594E6881027D9
:1005F00008A688116F88103594E6881727040370C1
:100600003594E6056C056A881827063AA6881935D8
:100610009434604F338BA6C81934026F05A6019736
:10062000EB8D0435623594A6044C34028109230114
:100630004FA704E6033384BDC7553AE60630C4C16C
:10064000C0240A3502800A2615E70320DCC43FC116
:10065000092305C6407EAC46E0E025211F98340200
:100660008D23860297EABDC763338819DFEEBDD6B6
:10067000F26F8818E6E0260CEC881326045F638886
:1006800017E7881839EE073341EF07397F09737F81
:100690000977CC110297ECD7EAC603D7EDCE060056
:1006A000DFEEBDD6F2FF097431C4A6C426288D2919
:1006B0008E094CA680A1C0260E8C095726F5F70995
:1006C00073A642B709763933A8201183070026D5CF
:1006D0005CC10B23C6394326D7B609772606F7092E
:1006E00077FF097839C6347D097326F87EAC46BD9C
:1006F000C935BDA5C7BDC79D8D928DE986FFBDC813
:1007000007BE09746F84C603D7EABDD6F2E60D8D25
:100710004430063AE68486FFA784C1C025F1CE06A0
:1007200000DFEECC110397ECD7EAC602D7ED8D259A
:100730006F013006C644BDA59A6FC011830700261D
:10074000F87ED6F23404D66F8C3404588E0926AE67
:1007500085E60035847EDBD88E097ED6EBC4013970
:10076000121212E60354D7ECC11125020CEC5850BA
:10077000EB038D05EB04D7ED393406584958495839
:1007800049E3E1396FE26CE483005A2AF9A6E4E711
:10079000E4C60A3D35025A8B092BFB4F398DB66DE5
:1007A0000026F96F0133068E06009FEECC110297EA
:1007B000ECD7EAC602D7EDBDD6F2C6447EA59A8D27
:1007C0009430064FC4FE6FE26385273163854C8108
:1007D0004424255CC50126F03406C0026362260C61
:1007E000E0E02A04E6E46361326120DCEBE0C1442E
:1007F00025F6E6E4C00420EEC6387EAC4632611F22
:10080000983AC6C0E784393402F6095B5CBDC74933
:10081000271796EBA1012611FE0974A64DA1022609
:1008200008A600A1E41026DDF35A26E13582BDA515
:10083000A50F6F5D102FEC12BDC749A6001027DB76
:10084000BA814027C17EA61686108C86200D6F2F98
:10085000B5AFE4BDC7443406A6001027DB9D814038
:100860002706A1E426DF3596AE648CB00C26F7BDD2
:10087000B26D8122260BBDB244BDB657C63BBDB298
:100880006F8EB01EAF6435962F25F1095B1022DD07
:100890008E35900D6F2F18326234160F6EBDC7441F
:1008A000E6064F8E10007EA37C0D6F2F0232623958
:1008B00032621CAF7FFF02B6FF0043847F2703BD77
:1008C000ADEB9EA69F2FA6802707813A27257EB2F3
:1008D00077A681970026037EAE15EC80DD689FA683
:1008E00096AF270F865BBDA2829668BDBDCC865DA4
:1008F000BDA2829D9F1FA9819826037E83168197A2
:1009000026037E83111F9ABDADC620A63262966F64
:100910003402BDA5AEBDA3ED0D6F102FDCBCBDC76D
:1009200044E600C1401027DCED5FA688102603E6F0
:1009300088177EA5E48EC2A96FE2B6095A97EBCE5E
:10094000094CCC2008A7C05A26FBC603BDA59ABDFA
:100950008748338420141026023D355611B3094AC6
:10096000102502508E09891602568E094C5C5A26B3
:100970000C32618C094C2667C63E7EAC46A6C0810F
:100980002E272D812F2729813A27098C095427E802
:100990008D3E20DA8DDD8D055D26DD358263622793
:1009A000D7121217125B96EBB101501022DC70398E
:1009B0008DC18E09578620A7828C095426F95A27A3
:1009C000DAA6C0813A27CD8C095727AC8D0220EEDC
:1009D000A78027A4812E27A0812F279C4C279939F7
:1009E000814D102705828D4B9E8ABF09579DA527F3
:1009F00021BDB26DC641BDB26F26E47309588D04A6
:100A00004F7EB764864F8C8649F6095B5CD76F7E54
:100A1000C48D8DF086FFBDCC24DC1B9319BDCC2486
:100A20001F98BDCC249E19A680BDCC249C1B26F704
:100A30007EA42D8EC2A67EC9384FC6FF2012812209
:100A40001026B85886022007814D102705734F5F86
:100A5000B70959F7095E8DDB9DA52710BDB26DC69C
:100A600052BDB26FBDA5C78603B709598D99B609A6
:100A700058270B7D095E2603BDAD197EAC7CB609F7
:100A800057BA095E1026DB8EBDAD1973095DBDCD69
:100A9000BCBDCDBC3402BDCDBC1F893502D319BD50
:100AA000AC379E19BDC5C4D6702604A78020F57F3B
:100AB000095D9F1BC603A68226035A26F99E1B9F2B
:100AC0001B6F805A2AF9BDA42DBDAD21BD829CBDEE
:100AD000ACEF7709592503BDA4267709591025E203
:100AE000BD7EAC730D6F2EDE39F6095B5C3404D726
:100AF0006F8D0E35045A26F5390D6F102FB78732DA
:100B000062BDC7440F6F9FF1A60027EC34026F004F
:100B1000E601D7EB81202619E688188680AA05ED24
:100B200088136C04E603BDC755A7013A6C067ECB5B
:100B3000C3814026F9EC09AE0B318B343631E4DE4B
:100B40001B11931D270EA64133422A028D283345DF
:100B500020EF354011931F273A1F30E3423406A699
:100B6000412AEFE64458CB054F33CB11A3E427E2EB
:100B70008D04334520F5AE42BC0948240EAC222535
:100B80000AAC2425071F10A3A4ED42396FC46F429D
:100B90006F4339F6095B5C3404BDC749A600814048
:100BA000260BEC0B10A3242504A3A4ED0B35045A4B
:100BB00016FDA31211B309482706A6C0A78020F48A
:100BC000BF0948BDC7556A006D012703BDC71E9EFA
:100BD000F1350281202708814026B0A60F270ABDE3
:100BE000C763338819DFEE8D2CA688132A9DE6880B
:100BF00012C40786203DCE0600DFEE31CBE6881218
:100C0000545454CB03D7EDCC110297EC8D09EC88EA
:100C100013847FED2EC603D7EA7ED6F21612811218
:100C20001212326234168E0926D66F58AE85E684CB
:100C3000C1102736810D26026F06812025026C0621
:100C4000C140261AEC8817C3000110A30910220125
:100C50007AED8817AE0B308B3502A71F35946C8860
:100C600018E6881827063AA7881835963460A789A9
:100C70000118E601D7EB6C04BDCBDF3184E603BD80
:100C8000C7553A3306A6248109250E6A246C25BD72
:100C9000C7BF6F246F25A7238C8AC0A7C430A4BD0B
:100CA000C685BDC5A935603596BDDCE7BDC79DBD10
:100CB000DBB9CC110297ECD7EAC603D7ED8E06005C
:100CC0009FEEBDD6F23540BDA5493440A6842738F5
:100CD0004327423410C608BDB9A28D1EC603BDB954
:100CE000A28D38AEE4E60D8D351F89C10A24028D30
:100CF0002A4FBDBDCCBDDBD0200CBDCEAF6E9FA0BA
:100D000002347F16059A35103088208C070025B5EF
:100D1000D6ED5CC1137EDD0DBDA2827EB9ACBDC730
:100D20005533064F4C81441022F92830C43AE684EA
:100D3000C1C025F0390D6F2F5E8EB069AFE48E0211
:100D4000DDC62CD70196062602C6208D6F8120278E
:100D5000FA8122260AC12C26061F89D7012022C12A
:100D6000222711810D260D8C02DD2744A61F810A42
:100D7000263E860D4D27179101271D3404A1E0273B
:100D800017A7808C03D626068D462606201E8D408A
:100D900027CD6F848E02DC3981222704812026F240
:100DA0008D2E26EE812027F8812C27E6810D26083E
:100DB0008D1E26DE810A27DA8D1C20D68D1227157E
:100DC000BDC744E600C1401026F587C64A7EAC4642
:100DD000BDA1760D70393414BDC744E600C140266C
:100DE0000BEC8815830001ED88153594A7881163F5
:100DF00088103594BDB654C1051025E64D0F067E0A
:100E0000BC14BDB143C605BDB50FBDBC357EB69B98
:100E10008D07EC07DD527E880E966F3402BDB1431C
:100E2000BDA5AE0D6F102FE621BDC7443502976FEB
:100E30006D001027D5C5398DE0A60197EBE6023489
:100E400010BDCD1E4AC43F34041F894FBDC779EB86
:100E5000E0890035103402A6008140350226B53401
:100E600010938A27038300018DAAD64F2704CB084D
:100E7000D74FBDBC5FAEE4EC8813847F8D960F62C4
:100E8000965CD64FBDB9C5BDBC5F3510EC098D84ED
:100E90000F62965CD64FBDBB917EBCEEBDB143BD2B
:100EA000B70E8D17D7EBBDC79DBDDD387EB4F334CB
:100EB00010AE66A60C84018B2E3590F101501022E5
:100EC000D75D3912127EDC2912121022D751F70990
:100ED0005A39A6642613AE658CAF9A260CAE628C86
:100EE000B16626058ECEECAF657E8846350246BDDE
:100EF000B1481027ED3D9E52EC0210830989250769
:100F0000B3094A1025E0AA7EAFA481CA271C81C874
:100F10001026B2289D9F812C1027C734BDB70BC166
:100F2000041022E52596BC7E962EBDA4299D9F7EA9
:100F30008C1BC1341026B230BDB262966F3402BD34
:100F4000A5AEBDA4060D6F2F13BDC744E600C1407A
:100F5000260A3502976FEC88177EB4F4BDA35F357F
:100F600002976FD66C7EB4F39D9F8D4FBD836CBD91
:100F7000836CAC621025E4D2BD836CBDA5C7CC02E6
:100F800000FD0957BDCA044F8D2BEC62A364C3005A
:100F9000011F028D1EEC648D1AAE64A680BDCC24A8
:100FA000313F26F786FF8D0D4F5F8D0735368D0358
:100FB0007EA42D8D00BDCC241E89398EC2AF7EC982
:100FC000389D9F8DF6BDCA07FC0957830200102685
:100FD000D6449E8A9DA52706BDB26DBDB73D9FD361
:100FE000BDA5C7BDCDBC34028D291F028D25D3D32D
:100FF000DD9D1F01A6E01026D433BDC5C4D67027E1
:10100000037EC352A784A18027037ED709313F26E0
:10101000E920D08D00BDCDBC1E89397EDD53128DF7
:101020003596EB34028D2A350291EB1026E41B8DA8
:101030002835109FA68D1FBDC68CBDC6E58D128EAE
:10104000094CFE0974C60BBDA59AC603D7EA7ED625
:10105000F2C6A5BDB26F7EC935BDC68CC6427D093C
:10106000731026DBE1391027E8EE8D030F6F39810D
:1010700023260FBDA5A5BDA4069DA51027E8D9BDB3
:10108000B26DBDB1569606261EBDBDD9BDB516BD05
:10109000B99F9DA51027E8C0862CBDA35F0D6E27C4
:1010A00002860D8D1420D88D07BDB99F8D0220E2D8
:1010B000BDA35F0D6E26B786227EA282BDC82E4FCD
:1010C0005F34169DA526023596BDB73834144FE31C
:1010D000632507AE6510A3092305C6447EAC46EE22
:1010E00063ED63EC0B33CBEF61C6FFBDB26FC6A7F8
:1010F000BDB26FBDB357BDB1463544E784EF0220A2
:10110000C2864F3402BDB357BDB1463410AE028C17
:1011100009892505BC094A2505C6467EAC46C6B3E5
:10112000BDB26FBD87483520A6A4272E3404C62043
:10113000EE22E7C04A26FBE6E0271FE1A42504E6ED
:10114000A46FE4EE226DE0270E34044F508200EBD2
:10115000A4890033CB35047EA59A3582BD95ACFCBD
:10116000094A8309893406F6095B34049DA5812C5C
:10117000270FBDB70BC10F1022E2CFE7E49DA527D3
:1011800008BDB26DBDB3E6ED61BDCAE9E6E4340465
:10119000CC0989E3622571ED62C30119256A6AE40D
:1011A0002AF75D27034C2760850127034C2759A7A1
:1011B000E4DC1B90BCABE4254F1F014C274A109385
:1011C0002124454A931BD3191F02A6E490BC1F8912
:1011D0009BBA97BADBB7D7B7354697BCF7095BFF21
:1011E000094A96684C27081F209319D3A6DDA6DE6E
:1011F0001B9F1B11931B2213A6C2A78211931926B2
:10120000F7109F196F3F20137EAC44DE19109F1911
:101210006F3FA6C0A7A0109C1B26F7CE0928BE09C9
:101220004A5FAFC16F00308901195CF1095B23F29D
:101230007E96CB8D1A5F5CBDC749270DA60191EB49
:1012400026073404BDCB063504F1095B23E839F6E3
:10125000095A9DA52709BDB70BBDCEBB121212D7E7
:10126000EB391027D3B9BD95ACBDD2563404129DCD
:10127000A52708C6A5BDB26FBDD2563404BDA5C70B
:10128000BDDC716FE286235F340630E9FF006C62DB
:101290003089EE009C1F24F66A621027D9A620042C
:1012A000357F20BD5F5C6AE42704E16226F7D7033F
:1012B000E6648D4886FFBDD322E6638D426DE42748
:1012C0000C4FBDD322E661DB03E76120D732657E98
:1012D000DB913540B6095C27168E09284F6F914C7B
:1012E000B1095B23F89E196F1FBDAD197F095CB66C
:1012F000095D27067F095DBDAD196EC486028C8627
:1013000003DDEAA66397ECBE001F9FEE9603C601BD
:10131000D7EDBDD6F20CEE5CC11223F40CEC4A26DC
:10132000ED39E665E16626367F09857FFF407F0956
:10133000863402BDA9108ED35FC60DA6E027058EA8
:10134000D36CC612BDB9A28ED37EC61BBDB9A2BDD9
:10135000DB91BDDB911212BDA171810D26F93949D6
:101360004E5345525420534F55524345494E5345D1
:1013700052542044455354494E4154494F4E204401
:1013800049534B4554544520414E440D505245530A
:10139000532027454E544552273520C60B8E0957FA
:1013A000A68234025A26F996EB34026EA4A68097E0
:1013B000EBC60BCE094C7EA59ABDC9358DDB6FE21D
:1013C0009DA5270A63E4C6A5BDB26FBDDDA18DC989
:1013D000BDA5C7BDCAE96FE230E9FF006CE4308902
:1013E000FF009C1F24F66AE41027D858306E8DBD8C
:1013F000BDC68CBDC6E5BE0974EE0EAE0B3450BD45
:10140000C79DF60976BDCD1E34024AC43F34041F81
:10141000894FBDC779EBE489008E000134165FAEB9
:10142000E427095C301F2704E16A26F7AFE4E7648C
:101430008D5086FF8D406D652725306BBDD3ADBDCA
:10144000DDBDBDC79DBDC7553006A665C6446384D6
:1014500026034A270863805A26F47EC7F863848DE2
:101460001BAEE4270DEC62EB648900ED624F8D0644
:1014700020AC32E824396DE8197ED32686FF306D22
:1014800020044F30E81A97D8BDD3ADAE68BF0957D6
:101490008E0100BF097C8652F6095B5CBDC48D9E3F
:1014A000F1CC0100ED8813E6662729D6D8E467273A
:1014B00009EC62EB668900BDC2E69EF1EE64EF07BF
:1014C000E666DE1F34449EF1EF0BBDC2EA6C613567
:1014D000445A26F09EF1CE0989EF0BD6D8E467274F
:1014E000096F67EC6A8A80ED88137ECB068D388D94
:1014F0002B34108D273410C602BDD58FCE06803513
:10150000108D05CE060035103450C680BDB50F33A2
:10151000843510E784EF0235107EA59ABDB26D8E3A
:10152000B3578D2F7EB146BDB70BBDCEBB12340471
:10153000BDB738C12222133404BDB738D7ED5AC124
:10154000112207350697ECD7EB397EB44ABDB26D50
:101550008EB156D6EBDEEC3444AD843544D7EBDFA8
:10156000EC398DC38DE78DBC9E5234108DDFBDB636
:101570005434145F8E06006F805A26FB3514CE0655
:10158000808D963510BDB659CE06008D8CC6038E63
:1015900006009FEED7EA7ED6F21027D0827ED9C20F
:1015A000C6049DA5270CBDB738C1111024DE9BBD14
:1015B000A5C734048E0712C6126F825A26FB4F202D
:1015C0000DEBE45CC01224FCCB126D8526F54CA714
:1015D00085811225EC326130E9FF0034109E1F3006
:1015E000891888ACE11022D65BBDDC71BD95AC0FCB
:1015F000EA0FECBDD6F27F098586C0B7FF48BDD79C
:10160000D1271D7ED68881162508B609868A10B78F
:10161000FF408650B7FF481217F6E6BDD7D12668BF
:10162000BDD7F08D6C108EFF4B1A508ED64FBF0970
:1016300083BE001FB6FF4886FFB70982C6F4F7FFD6
:1016400048B609868A80B7FF40E680E7A420FAB64C
:10165000FF481CAF844497F0262E0CEC96EC8123B7
:1016600026A4860297EA8E06009FEECE07004F97CB
:10167000EC5FA6C597EDBDD6F25CC11225F496ECE1
:101680004C812325EA7EDB917F09867FFF407ED750
:1016900001BE001FCC204E8D295F3404CE0700E62A
:1016A000C5D7EDCED6D4C6038D1E96ECA7806F802D
:1016B00096EDA780C6098D1035045CC11225DBCCE0
:1016C000C84EE7804A26FB393404ECC18DF435045A
:1016D0005A26F539080003F501FE010101F7164EFF
:1016E0000C0003F501FB00FF01F7184E12126E9F6C
:1016F000C00A3404C605F7098835048D620DF02749
:101700000D96F0C63C85402602C6287EAC463402C3
:1017100096EA81033502262A7D09872725345686D5
:101720000297EADEEE8E07009FEE8D33DFEE860332
:1017300097EA96F0260D5FA680A1C026065A26F7E6
:1017400035563935567A098826B1C64820BD5F819D
:10175000AA27075381881026DB1DF709870E9F7E75
:10176000DA201234027F0985D6EB8ED89DB6098621
:1017700084A8AA858A20D6ECC11625028A101F8962
:101780008A08B70986B7FF40C50826068CA7D1BDD1
:10179000A7D18D3D260A0FF08ED895D6EA58AD9583
:1017A0003502D6F0270B4A270834028D0B26F1208C
:1017B000B486F0B7098535F6BDC75812126F858615
:1017C00000B7FF481217F5398D078D24841097F064
:1017D000399E8A301F270817E927850126F53986A3
:1017E000D0B7FF481217F519B6FF48868097F03931
:1017F0008E222E301F26FC3986808C86A03402BDB6
:10180000C75812123AE684F7FF49D1EC271E96EC2E
:10181000B7FF4BA7848614B7FF481217F4E38DB1C6
:1018200026088DCC8418270497F0358296EDB7FFF3
:101830004A8ED88BBF09839EEEB6FF48B609868ACA
:10184000803504109E8ACEFF487309821A50F7FF34
:10185000481217F4ACC180271CC602E5C4260C311F
:101860003F26F87F09821CAF7ED7DFE680F7FF4B6B
:10187000B7FF4020F6C602E5C42606313F26F82011
:10188000E2F6FF4BE780B7FF4020F61CAFB6FF48FB
:10189000847C97F039D7B8D7D0D7F8D7FB0102416D
:1018A00042B609822708BE0983AF6A7F09823BB628
:1018B000FF032AFAB6FF02B6098527114AB7098540
:1018C000260BB6098684B0B70986B7FF407E8955D6
:1018D000113FCC0200DDEABDD252BDA5C7CC22012A
:1018E000DDECCC0600DDEEBDD6F2FC060010834F29
:1018F00053102600AACC2600DDEEC612BDD6F20C8F
:10190000ED0CEE5A26F67E26023416CC063B8E01EE
:1019100000BDD6C23596FFFFFFFFFFFFFFFFFFFFB1
:10192000FFFFFFFFFFFFFFFFFFFFFFFFFFFFFF992D
:10193000DA72DA78DB91DA20000000FF2008008EEE
:10194000DE7F1700AACC09008E0149BDD6C28EA049
:10195000E23410CCFFFFDD68CC55039771F70150DE
:10196000FED93B17033D0DF02605BDDB91200C8E03
:10197000DE5D0FEB8D79C604BDDC5F867FB7FF02AD
:10198000B6FF004384402639C6068EDE9AFEC006A6
:10199000BDA59AD6EBD7EBAD9FC0040DF026228EE5
:1019A000DE75BDD3B1BDC68C7D09732714BE097425
:1019B000EC0B830200270A96EBB7095A32627ECA03
:1019C0006739BDD256F1014E1025FBD4BDA5C7BD68
:1019D000DC7196684C261E8EDDF38D134FD6EBBD61
:1019E000BDCC8EDE068D08BDDDEC27068EDE1C7EAE
:1019F000B99CBDCCFD860397EACC2212DDECCC006D
:101A0000FF8E06009FEEBDD6C2BDD6F20AED26F9C6
:101A1000861297ED0AEC2AF17EDB9186037ED7636E
:101A2000347696EBB1014E25F2108E00F3CED93804
:101A3000A7A46F2196ECC6123DDBED89008300015F
:101A40006DA4270BC3027624026C216AA426F5E359
:101A50004124026C211F01E621EBC4108E01009687
:101A6000EA800227054A2705200C86D28C86578DEE
:101A7000078C34768D1935F697F3B60151DDF49F56
:101A8000F6398E00F3108E00051700929EEE393461
:101A9000010FF0F6D93DF7014F96F3815726438D9C
:101AA000E14F5FEB8089000AF026F83089FF0034AF
:101AB00006108E01008D67108E000230E48D5F10DD
:101AC0008E000186FF30E417007E35064D27118118
:101AD000F32609867797F37A014F26C3868097F01D
:101AE00035818D9E108E010086FF8D5C25EE108362
:101AF000010026E8342030E4108E00028D20108E84
:101B0000000186FF30E48D40350625D04D27D18178
:101B1000F326C97A014F27C486F297F320C43447CD
:101B20001A50CEFF208CE7C333C08608E680585990
:101B3000E7C16DC3564A26F833C4E7C4A6C1C6023E
:101B4000313F26E2E7C335C75F34511A501F0233D5
:101B5000848E0000860131A4272AB5FF2227073191
:101B60003FB5FF2226F0108EFF2233C4C67F6DA141
:101B7000A6A3445625F8E7C03A4F4CA4A4108E0003
:101B8000804D26D64CAAE4A7E431841F30A36135EA
:101B9000D134571A505FBDA9A2BDA976C6A0B6FF21
:101BA000208880B7FF208D085A26F3BDA97435D749
:101BB0003404C6605A26FD358496E78002270386E2
:101BC000028C8605B701D4B601D4B701D57EB958C9
:101BD0007A01D527F27EB9AC340696EBC6048E089E
:101BE00000A102271A30884A5A26F6C6048E080039
:101BF0006D84270930884A5A26F67EC504A7023527
:101C000086C10127230FEB5A271EA6C08030251856
:101C100081092214340696EBC60A3DEBE4D7EB8922
:101C200000350627E27EB44A398188271C81AA271D
:101C30001A81912730818F272C8123273EBDB70B36
:101C4000BDA5C7F101507ECECA5F8CC6049D9F27FB
:101C50000B5D2708BDB70B5CC10422C9BDA5C78DAC
:101C600010F7014E399D9F27028D12BDA5C78D012A
:101C7000393476BDCAE935F67ED7099D9FBDB70BCD
:101C8000C1FE22A1BDA5C7BDDC71B601513402F76A
:101C900001517F095A8D0C35040DF02705F70151CC
:101CA00020D6390FF08E00F3CCFFFFED01A703CE55
:101CB000D938EC02C3000124026C01A34124026A5A
:101CC00001ED02A601A0C4A7016FE2EC0283027637
:101CD00024066D0127086A01ED026CE426ED6AE432
:101CE0003504F701505F39BDD24FBDA5C78D5E8663
:101CF0000297EA8E06009FEEBDD6F2A68427E74340
:101D000027E48D31A68027DEBDCCFD20F727041007
:101D100025EFA8B601D4B101D527028D188EDE5665
:101D2000BDB99C4FD6EBBDBDCC8EDE4EBDB99C8DF2
:101D3000074FBDBDCC7EB958BDC75530066FE2C652
:101D400044A6804326026CE45A26F63584CC111151
:101D5000DDEC3981CF262C9D9FBDD256BDB26DCC16
:101D600000FF8E06009FEEBDD6C2BD8748BDA5C749
:101D70005D2707DEEEBDA59A6FC48DD1860397EA75
:101D80007ED6F29EA634107ED01F814D1026ECAE7A
:101D900034011A508EA545AF61BDCFC17FFF4035DC
:101DA000819EA63410BDB1568E01A99F0B35109FA0
:101DB000A60D061027F49F8E09547EC938BDC68C27
:101DC0007D0973272EA6E81AA16D26037ED05C96A6
:101DD000684C26158EDE248D0A8D11270932E826DF
:101DE0008EDE1C7EB99CBDCCFD7EC6F5BDA1B18446
:101DF000DF8159390D455241534520484152442015
:101E0000445249564520000D41524520594F552016
:101E1000535552453F2028592F4E29200041424F0B
:101E200052544544000D46494C4520414C524541D1
:101E30004459204558495354530D4F564552575213
:101E40004954452049543F2028592F4E292000202D
:101E500020465245453D0044524956453D004841C3
:101E60005244204452495645204E4F5420464F5527
:101E70004E440D0D004155544F4558454342415382
:101E80004844422D444F5320312E3144204457338F
:101E900020434F434F20310D0D000200000106008A
:101EA0000D6F27052D167ECC2281072603BDDB9101
:101EB000810C260834774FBDA91035777E82739642
:101EC0006F270B81FF260440B701497EC5BC34143F
:101ED000AE678CA39D2704351420F00F707D014957
:101EE00027082B297F01DA7F01497301497F01D13E
:101EF0007F01D27F01D3BDA1B181092715815D2664
:101F0000057301D3200C815F26207301D27D01D39C
:101F100027E47F01D2F601D18E01DA3AA6842605A4
:101F20007F01D320D17C01D1204B815B274C810DD7
:101F3000276181082709810A26177C01D120B77DF6
:101F400001D226258D0220217D01D127037A01D1DE
:101F50003981152711810C270D81032709815C2602
:101F600008BDA1B120037F01D1812025087D01D2C8
:101F700026037C01D135143262396FF801865FBDCA
:101F8000CCFDBDB958C601E7E48E02DDAF618D0D11
:101F900016FF5A7F01496FF8018D0220D88E02DDAD
:101FA000108E01DAE680E7A026FA392707830001C0
:101FB0008D031F213934766F64A6633DED66EC61B5
:101FC0003DEB668900ED65E6E4A6633DE365ED65FE
:101FD00024026C64A6E4E6623DE364ED6435F67EBB
:101FE00094A15F9DA52711BDB26DBDB141964F8BE8
:101FF00006974FBDB70EC43F1F98C40744444439E9
:00000001FF
